:02000004C0D06A
:10000000F0B503AF8DB062B62148002404602148EA
:100010003C2101602048047001F046FA1F48142278
:10002000214601F0EDFA1E4D28680B9001AE3046D6
:1000300002F076FFB0852E601A49084205D001A86B
:10004000002181850B9828601DE001F057FC2046B7
:1000500002F08CFD0126304602F088FD0E48047047
:10006000114878440321114A7A440C4B43C31C6065
:100070005A6001F037FD01F0C7F801A8818D0B9897
:100080002860002902D100200DB0F0BD02F054FF1D
:1000900090190020AC190020941900209819002014
:1000A000DC1A0020FFFF0000CE2F0000710F0000BF
:1000B000F0B503AF8DB0019306AE30707170B270C1
:1000C00004A80390002507220292294601F02FFE82
:1000D00007AC18222046294601F029FE3F20208047
:1000E0008A206080099603260A9603980B9002984E
:1000F0000C902046294600F031FB0146FF200029E4
:100100001ADB04A80078002816D11398129901234D
:1001100004AA13435B781B0254781C43019B1C8088
:10012000164373781B02D4781C430C805179927962
:1001300012020A43028028460DB0F0BDF0B503AFAD
:100140009BB01AAC218019A90A8018A9259A0A80A7
:1001500017A9269A0A80239C219D2A190E32422132
:10016000282A58D824990591229903912099019120
:10017000009306AE3070701C1AA9022204920294F9
:10018000144601F0C7FDF01C19A9224601F0C2FD7A
:10019000009870710198B071F5713046083003997C
:1001A0002A4601F0B7FD28460830C0B2029C3454FC
:1001B0000935E8B230180599224601F0ABFD651902
:1001C0000595E8B2301818A9049C224601F0A2FD5A
:1001D000A81CC0B2301817A9224601F09BFD11AD32
:1001E000002418222846214601F0A1FD3F20288046
:1001F0008320688013960598001DC0B2149010A843
:100200001590012016902846214600F0A7FAE143F8
:10021000002800DB1099C8B21BB0F0BDF0B503AFE9
:100220008FB01C4602AE3070717002203043102334
:1002300011461A4601F06EFDB4741498F0741598C6
:1002400030751698010E3176010CF175010AB17501
:1002500070751798707609AD00241822284621463B
:1002600001F065FD3F202880862068800B961A20CB
:100270000C9001A80D9001200E902846214600F018
:100280006DFAE143002800DB0199C8B20FB0F0BD60
:10029000B0B502AF88B002AD00241822284621462E
:1002A00001F045FD3F2028800848688001A806909D
:1002B000012007902846214600F050FAE14300282B
:1002C00000DB0199C8B208B0B0BDC0460101000012
:1002D000F0B503AF91B00493164605AB1870022534
:1002E0001022012800D01546581C2A461C460394AB
:1002F00001F010FD01200190054366556019049935
:1003000041700AA80490002403220292214601F0C1
:100310000EFD0BAE18223046214601F008FD3F20AD
:10032000308081204000708003980D90A81C0E90B2
:1003300004980F90029810903046214600F00EFA73
:100340000146FF2000290DDB0AA80078002809D10A
:1003500016980AA9019A0A43527812024978114361
:100360000180204611B0F0BDF0B503AF93B0039308
:1003700002920E4612A9088004AD022428462246A5
:1003800001F0C8FCAE701020012E00D00446E81C1D
:100390000299224601F0BEFC60190399C170042144
:1003A0002143189A6A5405212143199A6A541A99CB
:1003B00081711B99C171082020431C9929540BA8F5
:1003C0000290002103910322019201F0B0FC0CAED7
:1003D00018223046039901F0AAFC3F2030804120CA
:1003E000800070800E9509202043039C0F90029896
:1003F0001090019811903046214600F0AFF9014667
:10040000FF2000290DDB0BA80078002809D11D98DA
:1004100001210BAA11434978090252780A4302804C
:10042000204613B0F0BDF0B503AFADB01C46134687
:100430002CAA10802BA80180A01D4221802833D82F
:100440003299029104AD2CA9022603902846324627
:10045000019301F05FFCA81C2BA9324601F05AFC65
:10046000019828716C71A81D0299224601F052FC76
:1004700025AE002418223046214601F058FC3F20CA
:10048000308083204000708027950398C0B2289068
:1004900024A8299001202A903046214600F05EF9D8
:1004A000E143002800DB2499C8B22DB0F0BDF0B5BF
:1004B00003AFADB02CAC20802BA80180329EF01D84
:1004C0004221802836D833990291019204AC2CA99C
:1004D0000225039020462A46009301F01BFCA01C35
:1004E0002BA92A4601F016FC019820710098607132
:1004F000A671E01D0299324601F00CFC25AE0025E4
:1005000018223046294601F012FC3F20308093200B
:100510004000708027940398C0B2289024A82990A6
:1005200001202A903046294600F018F9E9430028B6
:1005300000DB2499C8B22DB0F0BDF0B503AFA9B06F
:100540000B469E1C4221802E22D802AC2070637084
:10055000A01C11461A4601F0DDFB23AD00210191DC
:100560001822284601F0E3FB3F2028800C206880F9
:100570002594F0B2269022A82790012028902846A2
:10058000019C214600F0EAF8E143002800DB2299B3
:10059000C8B229B0F0BDF0B503AF89B002AE30707B
:1005A000717003AD002418222846214601F0BFFBDC
:1005B0003F2028800F20688005960220069001A821
:1005C0000790012008902846214600F0C7F8E14333
:1005D000002800DB0199C8B209B0F0BDF0B503AF47
:1005E00081B01C461646009105460F484021017017
:1005F0003119491C0A0A427081700321C17004211B
:1006000001F07AFC002D05D0002E03D0284631469B
:1006100001F072FC0098002804D0002C02D0214682
:1006200001F06AFC01B0F0BDB01900207047000075
:10063000F0B503AF81B00A4C204600F057FC0948E2
:1006400000F054FC0025084E7119204600F05CFCB7
:100650005035F02DF8D105480021017001B0F0BDF2
:10066000001800200418002008180020F9180020A5
:10067000B0B502AF82B00C46054600200190244878
:1006800000F037FC002803D02248012101703CE033
:10069000002C1ED01E4801A900F03AFC4822482C2C
:1006A00000D822460198001D294601F033FB4C205A
:1006B00001990C540879042808D18879E2B2D21E35
:1006C000904203D1144800F01FFC02E0104800F0F3
:1006D00017FC12480078002817D10F4800F009FCD9
:1006E000002812D10C4C0A4D01A9204600F010FC44
:1006F0000198001D00F08CFB0199284600F004FCD5
:10070000204600F0F6FB0028EED002B0B0BDC04697
:1007100000180020F818002004180020F918002004
:10072000F0B503AF83B01D4614460B4A0A40800261
:10073000104302A908808C7001AE01203070701C3B
:10074000032201F0E7FA0422304629462346FFF748
:1007500045FF03B0F0BDC046FF030000F0B503AF96
:1007600089B00C46054628880290688804900026C7
:10077000069605A800F0BAFB4D4901200870AB6849
:100780002A7B296888B2090CFFF7CAFF002C00D029
:1007900085E00395019607A80121FFF747FF45482B
:1007A000049901400298800208430290424D434E52
:1007B00002E005A800F084F800F0C4FF4B2084009C
:1007C0000022049202E000F0BDFF002228462146EC
:1007D00001F0CCFB01F072F8304600F08AFB0028F3
:1007E000F1D106A9304600F093FB069905A800F068
:1007F0008BFB069908790428DBD14C20085C4A79E8
:10080000CB1D0F2A03DC07D00E2AD5D123E03E2AC8
:1008100012D0102AD0D130E04A7A897A09021143E5
:10082000029A92B2914228D1039C61680F292BD081
:1008300018780028C0D020E0039A52681B789342B1
:10084000BAD1021F039B5869824200DB02465A61FB
:100850001869083120E00A7A4B7A1B021343029A86
:1008600092B2934209D1821F039B5869824200DBF6
:1008700002465A6118690A310EE005A800F020F816
:100880000498C043019E0EE0C21E6069824200DBF4
:10089000024662612069194601F03CFA019E05A8F2
:1008A00000F00EF8304602490E7009B0F0BDC046A7
:1008B000F9180020FF030000B019002004180020E0
:1008C000B0B502AF82B0044600F013FB00280DD192
:1008D000074D01A9204600F01BFB0199284600F0B6
:1008E00013FB204600F005FB0028F2D002B0B0BD9B
:1008F00000180020F0B503AF93B00191064605AD96
:100900000024202203922846214601F010FA2E707E
:1009100001210291284608431F221F2E00D832468B
:10092000019901F0F7F90DAE18223046214601F089
:10093000FEF908203080092070800F9503981090F0
:1009400004AD11950298129030462146FFF706FF3C
:100950000146FF20002900DB287813B0F0BD00001D
:10096000F0B503AF83B02F48006802900120C005A6
:1009700005682D4E0020F073B07370733073F07201
:10098000B07270723072F071B0713A2171711121D0
:100990003171E721F170B070707002213170234C19
:1009A000E077A07760772077E076A0766076207693
:1009B000E075A07560752075E074A0741C497944D9
:1009C0001222204602F0CCF902984540290F19481E
:1009D0007844415C21722B0E02930F221340C35CBA
:1009E00063722B0D1340C35CA3722B0C0193134055
:1009F000C35CE3722B0B1340C35C2373290A0B46C1
:100A00001340C35C63732B091340C35CA3732A4078
:100A1000805CE0730298F0700198B070717035706E
:100A200003B0F0BD040080001A190020FA1800205D
:100A3000FA2500002A260000F0B503AF89B004466D
:100A4000002C00D11E4C1F4EB462002528462946BA
:100A5000FFF750FFFF2108422DD1B088F1881C4AD2
:100A60007A446B461A6006232A46FFF7DCFC09200D
:100A7000800108AA1080B08831896B461A60022371
:100A80002A46FFF7D0FC204602F064FA3E216A466F
:100A90000723C0B21560161D31C6156153619161FF
:100AA0002720C100094A28462B46FFF747FB0028AC
:100AB00001D109B0F0BD04480068012102F03CFA00
:100AC000FA1800202C190020DC1A0020530700001F
:100AD000AB250000F0B503AF89B00446FFF740FF37
:100AE0003E4D3021284602F035F9FFF7A1FD0020E8
:100AF00006213B4AFFF721FD002869D1FFF7C8FB1B
:100B0000002865D1284608306946AA1D0A60486059
:100B10002B1D012000210722FFF7CAFA002857D118
:100B200000266846C6603049816046601021079102
:100B300001600723304631463246FFF76FFB00283D
:100B400046D1069428460A306946086002202749A3
:100B50007944012208920723FFF7BAFB002837D116
:100B6000688929460C316A46079C50C21660546059
:100B7000089B9360D16002251D4A7A4414232946BC
:100B8000FFF7F2FB002823D11448014648890E31B3
:100B90006A46082348C215605460089B9360D16080
:100BA000144A7A4414232946FFF7DEFB00280FD1AC
:100BB00001200721FFF7EFFC0028069808D107491C
:100BC0000A46167424215654FFF736FF09B0F0BDCB
:100BD00004480068012102F0AFF9C0462C1900203A
:100BE0001A190020DC1A0020390500007A240000C0
:100BF0006024000048240000F0B503AF83B0144621
:100C00000D46064613490020C8620A20029011488A
:100C1000408969460D60002231462346FFF703FCF8
:100C2000002814D06428F2D100F08CFD4B20810004
:100C30000022094801F09AF900F040FE0548C06A18
:100C40000028F1D00298401E02900028DFD103B0A6
:100C5000F0BDC0462C190020B0190020B0B502AF7D
:100C600086B00246514D687F00285BD10878052880
:100C700043D8800001A3C058C01887461800000060
:100C800028000000380000007E0000007E00000008
:100C9000480000004878002802D18878002843D016
:100CA000032029E04878002802D18878002845D020
:100CB000052021E04878002802D18878002846D015
:100CC000042019E0287F00282CD14878AB8A1B0A21
:100CD000984210D18878AB8ADBB298420BD1364863
:100CE0001318A88A002834D0688A9AB2824200D9A0
:100CF0006B8AC91C45E0002008700020A882688229
:100D00002B4AAA61287768772A4A108004AB1871A9
:100D100004900E20187008785870A889052219468A
:100D2000FFF76AFF06B0B0BD01A90020087202906B
:100D3000019004200871A8890922F1E70020A88207
:100D400068821B4BAB61287768771A4B1880A8899B
:100D5000E6E70879CB781B0203436B821448A8614D
:100D6000688A144C2080154813182088144A904231
:100D700001D30120C0E7688A9AB2824200D96B8A07
:100D8000491DA8699CB2224601F0EEFFA86900192E
:100D9000A861688A001B6882A88A401CA882688AA9
:100DA0000028BFD1242000212954BBE72C190020A2
:100DB0002C1B00203E1C0020FDFF0000FBFF01005B
:100DC00005010000F0B503AF83B00F4D4420029041
:100DD000287000246C700126AE70EC700421019123
:100DE000284601F089F8029828706C70AE700320D4
:100DF000E8702846019901F07FF82046FFF76AFE67
:100E00000248047403B0F0BDB01900202C19002072
:100E1000F0B503AF83B00446207804285BD1607836
:100E2000FF2806D03E2823D0052854D1FFF7CAFF5B
:100E300051E0E178207900020843284988421ED019
:100E4000274988421FD02749884244D1E079217A36
:100E50000902014324488289921C91423BD1217BA3
:100E6000012938D1617B002935D10121017432E09B
:100E7000E07801282FD11C48002101742BE01A488A
:100E80000121C16227E0E079217A09020143E61DD0
:100E9000631D1548C289521C91421CD10293007CEB
:100EA00000280AD0607A25460A352946FFF7D6FE83
:100EB000307871780902014301E025460A3502982D
:100EC00002784078637A6C4628C4000210430022FE
:100ED0001346FFF7ECFA03B0F0BDC046160C000055
:100EE000130C0000010C00002C19002000210160EF
:100EF0007047026801200021002A00D00846704790
:100F000002680A600160704702680A600160704709
:100F100002680A60026812680260086800210160C5
:100F2000704770B5040B0F2214400023002C08D02A
:100F300030232343254637350A2C00D32B460B702C
:100F40000123040A1440002C08D0302525432646EE
:100F500037360A2C00D33546CD545B1C04091440A7
:100F6000002C08D030252543264637360A2C00D3DE
:100F70003546CD545B1C10403022024304463734C2
:100F80000A2800D32246CA54581C70BDF0B503AFDE
:100F900083B001920C460346002A1AD0501E0090DE
:100FA00000250293AE00A0591946FFF7BAFF029B35
:100FB0001B18A059002802DA272018705B1C019A20
:100FC0000098854202D22F2018705B1C6D1CAA422B
:100FD000E7D10020187003B0F0BD000080B500AF6D
:100FE000022101430348814202D1002000F066FF44
:100FF000002080BD03000080F0B5104A1368C45C77
:101000000021002C17D05D1C461900200C4904E07B
:101010000C542C181460345C401CE7B2002F07D02D
:101020000A2F02D03028F3D902E01B185B1C136092
:1010300000220A5401210846F0BDC0469019002044
:101040005C190020B0B502AF1149884205D01149A2
:1010500088421AD100F02AF817E00F486921017080
:10106000852141702020022100F09EFD0B480021C7
:1010700001700B4A0B487844032301240A4D7D4438
:1010800019C21160556000F02DFD0020B0BDC046B2
:1010900001000080020000802C1B00209419002019
:1010A00098190020BA1F00005BFFFFFFB0B502AF28
:1010B000A6B0294DAC78E978281D01AA0BAB00F049
:1010C0005AF80220044205D123480021412200F0B1
:1010D00097FA05E00BA908311F48412200F098FA61
:1010E0000120044206D1284641300021202200F090
:1010F00087FA06E02846413001A90831202200F095
:1011000087FA0420044206D12846613000212022BB
:1011100000F076FA06E0284661300BA94C31202217
:1011200000F076FA812090212954822000242C544A
:101130002020832100F038FD084804700849094840
:10114000784403220123084D7D443DC100F0CAFCD0
:10115000204626B0B0BDC0462C1B002094190020AC
:1011600098190020F01E000091FEFFFF80B500AF2F
:1011700000F0B8FC80BDF0B503AF8BB01D46029205
:101180000A46014628464C306B461860012603ACDF
:101190003046234600F072FE202230462146029C53
:1011A000234600F02FFE304629462246334600F003
:1011B00047FE0BB0F0BD0000B0B502AF05460F20F2
:1011C00028400024012813D0022813D1002908D078
:1011D0000B4800F091FE8020054209D000F0D8FDB8
:1011E00006E0412081000648002200F0BFFE0446D0
:1011F0002046B0BD03480068022101F09DFEC046B4
:101200002C1B0020DC1A0020F0B503AF95B06E4611
:10121000F51D3535002434616C612C61EC60574B51
:10122000F01D3D30048018682860F41D0D34204600
:1012300001F076FE514BA0851C605149084214D044
:10124000F11D0D3134698C85296819600F2109035E
:10125000014009221203914203D00322520391421A
:1012600053D1F11D3D31088057E0286968610024A1
:101270002C61E8686969C0B289B200F095FC6861C8
:10128000EC60686900286ED03F4B187880285ED1EA
:101290005878FF2857D004285FD13C4804603C2090
:1012A0003B490860DA78501EC0B2052860D20A2097
:1012B00050430121B1600843C01D364901406846D2
:1012C000F0606846401A70608546191DFFF75EFEA3
:1012D0007068FFF791FE3048B1680170314878447A
:1012E0000522314B7B4433602C4B05C319605C6095
:1012F0003168996000F0F6FB1020E9680143E9606D
:10130000F06885461D4B346913E01E4908400D21E5
:10131000C9020143F01D3D300180A868000A296917
:10132000194A5054A8682969891848702869801C8E
:10133000286128681860F11D0D31898D002900D1C0
:101340006EE701F0F9FDFC1F053CA546F0BD0B481A
:1013500000683721490201F0EFFD084800686D215F
:10136000090201F0E9FD054800680D4901F0E4FDBE
:1013700002480068D521C90101F0DEFDDC1A002019
:10138000FFFF0000FF0700002C1B00209019002029
:10139000AC190020F81F00009419002098190020B3
:1013A00082690000FA1D00005DFDFFFFF0B503AF8C
:1013B00083B03B4A1078401F092867D8800002A1FB
:1013C000405840188746C04628000000C40000006E
:1013D000C4000000C4000000C4000000C4000000FD
:1013E000C40000003A000000620000009800000005
:1013F0002C480069002849D0D178490800F0AAFBA0
:1014000044E02848818802910168D0799379557920
:101410001679D2786C46226032022A431B020343BB
:101420000846029900F0E7FA30E01E4C6068A168B7
:1014300081422BD22068002828D0E268002A1ED0E2
:1014400038234B43C0189047A168002816D1491C87
:10145000A1602068002819D062689142EDD315E0A0
:10146000104C0120A060206800280FD0E1680029FE
:101470000AD08847002809D0206805E020684A1C67
:10148000A26038224A43801800F02CFB00F052FD85
:10149000002801D100F056F9012003B0F0BDC0468C
:1014A000B019002098190020014800210160704700
:1014B000DC1A0020F0B503AF83B002920C4605465B
:1014C000474EB44211D00195454E4025304629463D
:1014D00001F040FC02984028024600D32A463046DC
:1014E000214600F095F83E4E019DB07805286DD854
:1014F000800002A1405840188746C04618000000EE
:101500002400000032000000D0000000D0000000E5
:10151000440000000020B07170713071F07003E081
:10152000F01C042100F050FC4021304601E02C4822
:101530004021A8472B4900200860C0B203B0F0BD8D
:10154000F078284C2168090A8842F3D13079216863
:10155000C9B28842EED1244802990D1820680028AB
:101560000AD022480168AAB28A4200D905682048F8
:101570000068711DAAB21BE00B46B07971790902AF
:1015800001431C4801604121890002688A42D1D888
:101590000168164801601649174A0A6017495D1824
:1015A000A9B20268914200D90568F11DAAB2124899
:1015B00000F02EF8A8B20E490A6812180A600B490A
:1015C0000A68101A08602068401C206007480168FB
:1015D00001200029B1D10348002101600220ACE7BD
:1015E000E01A0020201B0020FBFF0000281B002029
:1015F000301C0020241B00202C1B0020F9FF0100C0
:10160000002A04D0521E93B2C154002BFAD1704765
:1016100010B5884208D9002A10D0521E93B2CC5C73
:10162000C454002BF9D109E0002A07D00B780370CD
:10163000401C491C521E024B1A42F7D110BDC04635
:10164000FFFF00000148002101607047201B0020BF
:10165000F0B503AF85B0029301920C460390002CC5
:1016600045D0324E00203060314932480860324A5D
:10167000901C3E21154601F06DFB2A460520907016
:101680003068000AD07030681071A1B2306800284C
:1016900009D03B203B2900D80846C4B20491244D10
:1016A0002968501D0BE0200A5071947139203929A6
:1016B00000D80846C4B204911D4D2968D01D1646B5
:1016C0002246FFF7A5FF30462A461168091925462C
:1016D000164E11603168491C316040210446039A5E
:1016E000904722460498441B14480442C0D10F4836
:1016F000002404608020029D054201D000F048FBD8
:10170000202005420FD10C4C019D40212046A847C6
:10171000C2B2402AF9D803982146FFF7CBFE02282F
:10172000F3D107480468A0B205B0F0BD201B00202B
:10173000301C00202C1B0020E01A0020FFFF0000BE
:10174000241B002080B500AF00F0F4FB00280BD173
:101750000648602101700021417002228270C17030
:101760000171052100F0C8FB80BDC046B019002002
:10177000D0B502AF1748C078401E072828D880008F
:1017800001A14058401887462000000032000000A8
:10179000480000003A000000480000004800000037
:1017A00048000000420000000B4C0121204600F0E0
:1017B00091FE204600F077FED0BD074800F09BFE6A
:1017C000D0BD054800F089FED0BD034800F08DFE75
:1017D000D0BDC046B01900205C1C00207F21014014
:1017E0000148405C7047C046341C0020D0B502AFB1
:1017F00010480179042908D0022913D0012910D1F9
:10180000811D0E4800F081FDD0BDC1787F221140BE
:101810004379094C6354C1781140821D074800F098
:10182000A3FDD0BDC2787F211140821D034800F086
:10183000DCFDD0BDB0190020341C00205C1C002051
:10184000F0B503AF81B00C460646FF2C31D81A4DD7
:1018500050202870E01C010A6970A8708220E8708E
:10186000202028716C710621284600F045FB304687
:10187000214600F041FB02E00220FFF797FD00F057
:1018800059FB002801D1FFF75DFF4B2081000022AA
:10189000284600F06BFB29780628EDD1E87810295E
:1018A000EAD129798228E7D10229E5D16879A042D5
:1018B000E2D101B0F0BDC046B019002080B500AF44
:1018C0000D4A907851780902014313780020142BB7
:1018D00008D0102B0AD00F2B0DD104290BD1FFF704
:1018E00047FF07E0D01CFEF7C3FE03E0062902D342
:1018F000FFF77CFF012080BDB0190020D0B502AFFA
:10190000062000F027FA0A480024047009480480E1
:10191000094804800948048009480470FFF792FED2
:10192000084804600848046008480460D0BDC04608
:101930003A1C00203C1C00203E1C0020401C0020C3
:10194000421C0020441C0020481C00204C1C00208D
:10195000B0B502AF0D460446206B002806D000F05B
:10196000F1F9014620468847002808D0002D03D011
:101970002046A847002802D02046FFF7F7FBB0BD5D
:10198000B0B502AF8EB00C460546686B002806D095
:1019900000F0D8F9014628468847002811D068464B
:1019A00038222946FFF734FE686A0490A86A059039
:1019B000002C03D02846A047002802D06846FFF735
:1019C000D5FB0EB0B0BDB0B502AF0D460446E06A1F
:1019D000002806D000F0B6F90146204688470028C6
:1019E00008D0002D03D02046A847002802D020466A
:1019F000FFF7BCFBB0BDB0B502AF82B000246D46AE
:101A00006C60069C2C6000F003F802B0B0BD0000D2
:101A1000F0B503AF87B003930492059100294BD032
:101A20000D9902910C99019100252D4A06952C469D
:101A300038266E43851912680123954200D0069B13
:101A4000069382570146002A19DA2022A85C022256
:101A5000AB5E1A1A049EB24211DCC218EB88D2188F
:101A6000049B93420BDA0422AE5E321A039B9A4225
:101A700005DC32182B89D218039B93420EDB641CC1
:101A8000E5B205988542164A0846D1D3FF2006994B
:101A9000014211D01068002807D10DE0104A1068EB
:101AA00085420BD01068002808D0106802991446AF
:101AB000FFF74EFF0020206007B0F0BD019801281D
:101AC00008D00228F8D10020106028460299FFF7BC
:101AD0007AFFF1E7156028460299FFF751FFEBE71F
:101AE000441C0020F0B503AF81B00446E569002D29
:101AF0001CD01648854203D3284600F023F905463A
:101B0000284601F027FA0646114865210170314642
:101B10001C310A0A42708170032100F0EDF91C218A
:101B2000204600F0E9F9B1B228460BE008486521EB
:101B30000170002141701C258570032100F0DCF943
:101B40002046294600F0D8F901B0F0BD0000D0C011
:101B5000B0190020F0B503AF81B00246002A1CD0B6
:101B60000F4C2068884203D10E4803685B1C036059
:101B7000206808430B4D2B68002901D0206005E048
:101B8000002626602E600126F607304324688C422A
:101B900001D0002129601946904701B0F0BDC04630
:101BA000481C00204C1C0020F0B503AF81B0044657
:101BB0000F20044204D02046FFF7FEFA054693E0CA
:101BC0001026264000292CD0002E2AD14848007823
:101BD00007280BD0002804D02046FFF7EDFA002894
:101BE0000AD044480068092101F0A6F94848784421
:101BF00000222023FFF72CFD00253D4805703E48BC
:101C000005803E4805803E4805803E4805702020FE
:101C1000044269D1FFF796FD8020044201D000F014
:101C2000B7F8002E10D14020044251D13048002195
:101C300001703148018031480180314801803148CC
:101C4000017001E0FFF77EFD4B2081002F4C002545
:101C500020462A4600F08AF9C11EA27863781B024A
:101C60001343994213D122780F2A0BD0102A18D08F
:101C7000142A1FD1E01CFEF7FBFC20480188002934
:101C8000E0D01FE0042802D1FFF772FDDAE7184820
:101C9000002101701848018018480180184801800F
:101CA000D0E7062820D3FFF7A1FD144801880029BA
:101CB000C8D012E00220FFF779FB00F03BF90028C2
:101CC000C2D1BFE70F4902220A700949012209E087
:101CD0000A4800880C49451806E00A4901220A70A2
:101CE000034907220A700588A8B201B0F0BDC046BA
:101CF0003A1C0020DC1A00203C1C00203E1C002066
:101D0000401C0020421C0020FBFF0000B0190020F6
:101D10004FFCFFFFD0B502AF0446002902D001F00E
:101D20001FF802E0114601F015F82046D0BDD0B5ED
:101D300002AF0446CBB211461A4601F019F820460C
:101D4000D0BD00007A460249C91C891A401A704762
:101D5000451DD0C080B500AF84B00A4901910A4941
:101D60000A680292039001A8004601DF0046074876
:101D7000019A824201D104B080BD0868042101F0BB
:101D8000DBF8C04637010060DC1A0020C601009075
:101D900080B500AF82B00948009009480168019100
:101DA0006946084601DF01460649009A8A4201D188
:101DB00002B080BD0068042101F0BEF8000200609E
:101DC000DC1A0020F102009080B500AF84B00A4A0E
:101DD00000920A4A136801930290039168460046F4
:101DE00001DF00460649009B8B4201D104B080BD53
:101DF0001068042101F0A0F82C050060DC1A002016
:101E000067050090B0B502AF86B00A4C00940A4C4A
:101E10002568019502AD0FC56846004601DF004602
:101E20000649009A8A4201D106B0B0BD206804215B
:101E300001F082F8ED270060DC1A0020AE27009048
:101E4000B0B502AF86B00A4C00940A4C25680195E3
:101E500002AD0FC56846004601DF00460649009AFC
:101E60008A4201D106B0B0BD2068042101F064F8B7
:101E70002E280060DC1A002074280090B0B502AF54
:101E800088B00B4C01940B4C2568029503AD0FC52F
:101E90000C98079001A8004601DF0046064801990A
:101EA000814201D108B0B0BD2068042101F044F89E
:101EB0002B4F0060DC1A00207F4F009080B500AFF0
:101EC00084B00A4901910A490A680292039001A864
:101ED000004601DF00460748019A824201D104B062
:101EE00080BD0868042101F027F8C046E15D00606C
:101EF000DC1A00206F5D009080B500AF84B00A4A04
:101F000000920A4A136801930290039168460046C2
:101F100001DF004606480099814201D104B080BD2E
:101F20001068042101F008F81C660060DC1A00202B
:101F3000F366009080B500AF82B00948009009496F
:101F4000086801906846004601DF0046064A009B8B
:101F5000934201D102B080BD0868042100F0ECFF7B
:101F6000CF670060DC1A00207F670090D0B502AF19
:101F700086B00B4B01930B4B1C68029403AC07C457
:101F800001A8004601DF00460749019A8A4202D1B2
:101F900080B206B0D0BD1868042100F0CDFFC04665
:101FA000D1680060DC1A00202B68009002490020F4
:101FB0000860024908607047501C0020541C002033
:101FC000D0B502AF06484F210170002444700121B2
:101FD00081700221C1700421FFF78EFF2046D0BD21
:101FE000B0190020F0B503AF83B001AD4F262E70BD
:101FF00000246C700220A8700320E8702C71052169
:102000002846FFF779FF2E706C700120A870E870E9
:1020100004212846FFF770FF204603B0F0BDD0B57D
:1020200002AF82B001A84F21017000244470012149
:1020300081700221C1700421FFF75EFF204602B0CB
:10204000D0BD0000F0B503AF83B01A48002505608D
:102050001948056001AE4F20307075700520B070D2
:102060000420F070012434717171B571032A19D8FC
:10207000910002A2895889188F46C04610000000BE
:10208000160000001C0000002200000001A884715E
:1020900008E001A9887105E001A8032101E001A879
:1020A0000221817101A8C3710821FFF725FF0020DB
:1020B00003B0F0BD501C0020541C0020D0B502AF6E
:1020C00082B068464F22027000244470052282705C
:1020D0000422C2700122027141718471C47108210D
:1020E000FFF70AFF204602B0D0BD0000D0B502AF16
:1020F00082B00C46684650210170002141700322D5
:102100008270C4704022027141710621FFF7F4FE13
:102110007F2121400120884080210C4201D10549C6
:1021200000E003490A6802430A60002002B0D0BD03
:10213000501C0020541C0020B0B502AF82B00C46E9
:102140006846502101700021417003228270C470E2
:102150008025057141710621FFF7CEFE7F202040CA
:1021600001218140C8432C4201D1054900E00349C7
:102170000A6802400A60002002B0B0BD501C002076
:10218000541C00208020014205D17F200140012203
:102190008A40064804E07F20014001228A4002482C
:1021A00000681040C0B27047501C0020541C002032
:1021B000D0B502AF82B068464F220270002444704E
:1021C000022282700322C27001710521FFF794FE82
:1021D000204602B0D0BDB0B502AF82B01C46154655
:1021E000684650220270E21C130A43708270C1706C
:1021F0002021017144710621FFF77EFE2846214609
:10220000FFF77AFE002002B0B0BDD0B502AF82B0B9
:102210006846502303700024447003238370C17008
:102220003021017142710621FFF766FE204602B09F
:10223000D0BDF0B503AF81B015460E46044602206E
:10224000002C10D041208100204600F083FD002E9C
:1022500001D0F0202650DC20012121542570204699
:10226000FFF7A4FE0020C0B201B0F0BDD0B502AFB0
:102270000446DC2001212154F4202058002806D0F7
:102280004068FFF75FFD02462179204690472046CF
:10229000FFF7C5FE2046FFF793FE0020D0BD0222C7
:1022A000002902D0F42281500022D0B2704780B5BC
:1022B00000AFFFF797FE002080BDB0B502AF0C461F
:1022C0000546F420285800280CD00068FFF73AFD96
:1022D000024628462146904701460220002900D1A7
:1022E0000846B0BD0220B0BDB0B502AF0C460546F1
:1022F000F4202858002806D04068FFF723FD024646
:102300002846214690470020B0BDB0B502AF044634
:102310002546E835284600F016FBD420012121503F
:10232000EE20205AD8216050E820215C1F20084070
:10233000022808D001280BD000280ED120462946BB
:1023400000F0ECF80EE02046294600F07DFA09E0A6
:102350002046294600F051FA04E080200140204642
:10236000FFF7C4FE0020B0BDF0B503AF81B0154645
:102370000E460446002E10D0F42020588069002814
:1023800030D0DC21615C03292CD1FFF7DBFC034654
:10239000204631462A46984724E0D4202058032876
:1023A00020D180202058E16F81420AD9091AE167C3
:1023B000814200D301468AB22046294600F01DFC26
:1023C00010E0F42020580069002808D0DC21615C6E
:1023D000032904D1FFF7B6FC014620468847204672
:1023E00000F013FC002001B0F0BDF0B503AF81B0E8
:1023F0000D460446002D11D0F420205800284FD05F
:10240000406900284CD0DC21615C032948D1FFF7EA
:1024100099FC024620462946904741E0D4202058A6
:10242000022836D1E069266AB04208D9801BE061F3
:1024300083B2204611461A4600F0D5FB29E0A56973
:102440002846314600F080FCB5420FD300290DD15B
:10245000D82020582646D836854207D20025204667
:1024600029462A4600F0BFFB356012E0F4202058D0
:1024700000280BD0C068002808D0DC21615C03294B
:1024800004D1FFF75FFC014620468847204600F054
:10249000C9FBE020205CE034012801D1002020703D
:1024A000002001B0F0BDD0B502AF0446802040212D
:1024B00021502162DC2001212154F42020580028E1
:1024C00006D04068FFF73EFC02462179204690473F
:1024D0000020D0BD017400207047DC21425CDD2368
:1024E000C2540422425400207047DD21415CDC22AA
:1024F000815400207047D0B502AF0446DC20205C38
:10250000032809D1F4202058C069002804D0FFF71F
:1025100019FC0146204688470020D0BDF0B503AF26
:1025200081B00D4604466878092800D911E1800081
:1025300001A1405840188746280000005E000000B6
:102540001A0200007A0000001A020000EC000000ED
:102550002E0100001A020000A2000000C2000000CC
:10256000DC20205CFE210140022900D0F1E00120A6
:10257000E060E420215825460C350320002905D0D1
:10258000204600F04FFBE16802200843E060022291
:102590002046294608E1DC20205CFE21014002297A
:1025A00000D0D6E06888012800D0FFE0E4200021B8
:1025B00005E06888012800D0F8E0E42001212150DE
:1025C000F42020588068FFF7BDFB024620462946CC
:1025D0009047204600F019FBE8E0E888012800D089
:1025E000B7E0DC20205C03286AD0022800D0B0E0ED
:1025F0000020A0602146083163E0A978784D297059
:10260000022900D3A5E0DC20225C2046DC30032A2E
:1026100059D0022A00D09CE00029DAD06160032260
:1026200002705CE0A888002800D092E0E8880028CA
:1026300000D08EE068887F260640DC20205C25469E
:10264000DC35032800D184E0DE202654F1B2204698
:10265000FFF7AEFD204600F0D8FA002E00D1A8E02A
:1026600002202870A2E06888010A491E0E2970D84D
:10267000890002A2895889188F46C0463C00000094
:10268000B40000006E000000D6000000D60000007C
:10269000C2000000D0000000D6000000D6000000FC
:1026A000D6000000D6000000D6000000D6000000D2
:1026B000D6000000A0000000F0202058006830E0A4
:1026C000211D01226FE000294CD06068814200D1B9
:1026D0007FE7C1B22046FFF707FE297861602046F8
:1026E000FFF7EBFD022834D073E7C0B2052830D8DD
:1026F000800002A1405840188746C04618000000DC
:10270000BC000000C4000000CC000000D4000000A9
:10271000DC000000F0202058406802E0F020205843
:10272000C069FFF70FFB0246207C694690472DE009
:10273000F4202058217C00291ED0C06A21E0207C92
:10274000002806D1F4202058406B1AE0207C002895
:1027500014D080212046FFF7C9FC00212046FFF756
:10276000C5FC23E00222027061602046FFF7BCFD39
:10277000204600F04AFA2CE7806A02E0F420205854
:10278000006BFFF7DFFA0146684688470146684656
:102790000288002A0AD0E888002807D0824200D3A5
:1027A000024668460280204600F00EFA002001B082
:1027B000F0BD01202870F9E7F02020588068B0E7CC
:1027C000F0202058C068ACE7F02020580069A8E746
:1027D000F02020584069A4E7F02020588069A0E745
:1027E000581C0020D0B502AF04468021FFF77EFCC4
:1027F00000212046FFF77AFCD0BDB0B502AF0D46F0
:102800000446DC20205C032814D1A888FE21014066
:1028100001290FD8F42020588068FFF793FA024668
:10282000204629469047E88800280BD1204600F032
:10283000ECF907E080212046FFF758FC00212046F4
:10284000FFF754FC0020B0BDF0B503AF81B00E46D9
:102850000446308860210140202909D1F420205805
:102860008068FFF76FFA024620463146904767E0DE
:102870003579000A002813D001281BD003285FD126
:10288000DC20205C032819D17088002832D18020F8
:10289000284380282ED020462946FFF727FC29E030
:1028A000DC20205C032832D0022810D17F20054292
:1028B0000AD145E0DC20205C032811D0022806D193
:1028C0008020284380283BD02046294605E08021EF
:1028D0002046FFF70BFC00212046FFF707FC2FE006
:1028E000708800282CD17F2005420CD02046294634
:1028F000FFF722FCF42020588068FFF723FA0246F5
:10290000204631469047204600F07FF918E02646E1
:1029100014362046743080210D4200D106462046F0
:102920002946FFF72FFC0121002800D101467F2016
:1029300005402801315031180222204600F044F9A8
:10294000002001B0F0BD0A7802704A7842708A789F
:10295000CB781B02134343800A794B791B02134344
:1029600083808A79C97909021143C18070470000C8
:10297000F0B503AF83B00D46044602A800260680DA
:1029800001A80670288860210140000A002923D090
:1029900020294BD1801E092818D8800001A1405859
:1029A0004018874664000000640000002800000012
:1029B0002800000028000000280000002800000077
:1029C000280000005C0000005C0000002046294652
:1029D000FFF708FF022629E00B2811D00A2813D0A0
:1029E000062823D16888000A002621280FD0222833
:1029F0003246314617D102A8009000F08FF80AE065
:102A0000204600F002F911E001A901220BE002A822
:102A1000009000F07BF8009B01461A88E88882420B
:102A200000D302461A80204600F0CEF8F0B203B080
:102A3000F0BDF0B503AF81B00446822102254026E7
:102A40002A463346FFF7FEFA204629462A463346F1
:102A5000FFF7F8FA204629463246FFF7D6FB00205A
:102A600001B0F0BDD0B502AF04468221FFF726FBCE
:102A700002212046FFF722FB0020D0BD1220088053
:102A8000014878447047C0462C08000004200880A4
:102A9000014878447047C046960700000E20088021
:102AA000014878447047C0469A0700000E2008800D
:102AB000014878447047C0467C0700000220088027
:102AC000014878447047C0466A0700000E2008801D
:102AD000014878447047C0466A0700000E2008800D
:102AE000014878447047C0465A0700000A21018017
:102AF000014878447047C046B20700002921018090
:102B0000014878447047C0466A07000009210180E7
:102B1000014878447047C0468607000022210180A2
:102B2000014878447047C04628070000B0B502AF9E
:102B30001446022540222946FFF767FB2846FEF788
:102B40004DFE0246084878442146FEF7B3FC0228B1
:102B500003D103480068034908800020B0BDC04687
:102B6000241B00203E1C0020F7ECFFFFF0B503AF54
:102B700081B0044641208500104800212A46FEF716
:102B80003FFD002C15D00D4C0026204631462A462C
:102B9000FEF736FD0A49794420463246FFF749FBE5
:102BA000084979442046FFF77AFB2046FFF77FFB70
:102BB00002E00248FFF75AFB01B0F0BD5C1C0020A8
:102BC0002A0700004E060000D0B502AF13460A46A1
:102BD000D421022444508361C36100242146FFF7BD
:102BE000FAFA2046D0BDD0B502AF13460A460024FB
:102BF0002146FFF7F0FA2046D0BDD0B502AF002441
:102C00002146FFF702FB2046D0BDD0B502AFD4214C
:102C1000042242500024214622462346FFF7DBFAD5
:102C20002046D0BDD0B502AFD421052242500024A9
:102C300021462246FFF7E9FA2046D0BD002243088C
:102C40008B4274D303098B425FD3030A8B4244D374
:102C5000030B8B4228D3030C8B420DD3FF220902B6
:102C600012BA030C8B4202D31212090265D0030B75
:102C70008B4219D300E0090AC30B8B4201D3CB036B
:102C8000C01A5241830B8B4201D38B03C01A5241AD
:102C9000430B8B4201D34B03C01A5241030B8B42AF
:102CA00001D30B03C01A5241C30A8B4201D3CB029A
:102CB000C01A5241830A8B4201D38B02C01A52417F
:102CC000430A8B4201D34B02C01A5241030A8B4282
:102CD00001D30B02C01A5241CDD2C3098B4201D39A
:102CE000CB01C01A524183098B4201D38B01C01A18
:102CF000524143098B4201D34B01C01A524103098F
:102D00008B4201D30B01C01A5241C3088B4201D33D
:102D1000CB00C01A524183088B4201D38B00C01AEA
:102D2000524143088B4201D34B00C01A5241411A11
:102D300000D20146524110467047FFE701B500201E
:102D400000F006F802BDC0460029F7D076E77047CC
:102D50007047C04610B5002200F00AF810BDC0460A
:102D600010B500F00DF810BD10B500F047F810BD1B
:102D7000130010B50A00190000F08CF810BDC04611
:102D800070B50F2A32D90C0004430B00A40731D1CF
:102D900015000400103D2D0901352D0149191E684B
:102DA00026605E6866609E68A660DE681033E66036
:102DB00010349942F3D10F2345191340032B1BD92B
:102DC0001C1F0023A4080134A400CE58EE50043385
:102DD0009C42FAD103232D1909191A4005D000236A
:102DE000CC5CEC5401339A42FAD170BD0500002A44
:102DF000F5D1FAE70500F2E71A00F8E770B5884266
:102E00000BD98B18984208D2991A531E002A03D066
:102E1000CA5CC254013BFBD270BD0F2A09D8050021
:102E2000002AF9D00023CC5CEC5401339A42FAD149
:102E3000F2E70C0004430B00A40726D115000400A0
:102E4000103D2D0901352D0149191E6826605E6867
:102E500066609E68A660DE681033E66010349942B2
:102E6000F3D10F2445191440032C10D90023043C3E
:102E7000A4080134A400CE58EE5004339C42FAD189
:102E800003232D1909191A40CAE70500CAE72200D1
:102E9000C6E7C04670B583073FD0541E002A3BD01A
:102EA000CEB20300032503E0621E002C34D01400D0
:102EB00001335A1E16702B42F6D1032C24D9FF255C
:102EC0000D402A0215432A0415430F2C11D9260060
:102ED000103E3609013636011A009B1915605560FF
:102EE0009560D56010329342F8D10F221440032C24
:102EF0000AD9261FB6080136B6001A009B1920C24F
:102F00009342FCD103221440002C05D0C9B21C19F5
:102F1000197001339C42FBD170BD14000300CCE753
:102F2000F0C041464A4653465C466D4676467EC0F2
:102F30002838F0C80020704710307CC89046994669
:102F4000A246AB46B54608C82838F0C8081C00D1D0
:102F50000120184710B5830727D00378002B26D00F
:102F60000300032102E01A78002A1CD001330B422F
:102F7000F9D119680F4A104C8A188A4322420FD19E
:102F8000043319680B4A8A188A43224208D1043351
:102F90001968084A8A188A432242F1D000E00133B6
:102FA0001A78002AFBD1181A10BD0300E1E70020AF
:102FB000FAE7C046FFFEFEFE80808080094C656413
:102FC0006765722858585858585858582900669AB2
:102FD0000C200008969EE2119EB1E0F273D9669A29
:102FE0000C200008969EE2119EB1E1F273D9669A18
:102FF0000C200008969EE2119EB1E2F273D93031A6
:103000003233343536373839414243444546004C33
:1030100065646765720057616974696E6720666FE1
:1030200072207061746800566572696679207061FB
:103030007468000003000000000080002000000011
:103040000100000000000000FFFFFF000000000082
:103050000000000000000000000000000000000070
:103060000000000000000000000000000702000057
:103070000C0080000B00000000000000FFFFFF00BC
:10308000000000000A8000001630D0C000000000E0
:103090000000000000000000000000000000000030
:1030A00000000000050003000C00070007000000FE
:1030B00000000000FFFFFF0000000000000007000C
:1030C0000000000000000000000000000000000000
:1030D00000000000000000000000000003000000ED
:1030E000000080002000000001000000000000003F
:1030F000FFFFFF00000000000000000000000000D3
:1031000000000000000000000000000000000000BF
:1031100000000000070200000C0080000B0000000F
:1031200000000000FFFFFF0000000000088000001A
:103130002730D0C0000000000000000000000000A8
:10314000000000000000000000000000070217005F
:103150001A0052000B008A0000000000FFFFFF0071
:10316000000000000A801A005C1900200000000026
:10317000000000000000000000000000000000004F
:1031800000000000050003000C000700070000001D
:1031900000000000FFFFFF0000000000000007002B
:1031A000000000000000000000000000000000001F
:1031B0000000000000000000000000000500750095
:1031C0000D0008000600000000000000FFFFFF00E7
:1031D00000000000000006000000000000000000E9
:1031E00000000000000000000000000000000000DF
:1031F00000000000332AD0C0652AD0C07129D0C099
:103200000000000000000000000000002D2BD0C0D6
:10321000000000000000000000000000FD2AD0C0F7
:10322000FD2AD0C0FD2AD0C0ED2AD0C00403090475
:1032300002030E034C006500640067006500720025
:103240000E034E0061006E006F002000530006A0C8
:10325000FF0901A1010903150026FF00750895402B
:1032600081080904150026FF00750895409108C0E3
:1032700009022900010102C0320904000002030012
:1032800000020921110100012222000705820340EA
:10329000000107050203400001000000092111019F
:1032A00000012222000000000A0600020000004087
:1032B00001001201000200000040972C01000002F2
:1032C000010203017D2AD0C08D2AD0C0AD2AD0C012
:1032D0009D2AD0C0BD2AD0C0CD2AD0C0DD2AD0C002
:1032E00000000000000000000000000000000000DE
:1032F00000000000000000000000000000000000CE
:04000005C0D0000166
:00000001FF
