:02000004C0D06A
:10000000B0B502AF8CB062B61B48002404601B4838
:100010003C2101601A48047000F09EFC1948B0228F
:10002000214600F04BFD184D28680A906C4620468A
:1000300002F002FAA0852C601449084205D06846F7
:10004000002181850A98286011E000F0B7FE0020A9
:1000500002F054F8012002F051F800F01BF900F012
:1000600003FA6846818D0A982860002902D1002091
:100070000CB0B0BD02F0ECF934180020EC180020F0
:10008000381800203C1800201C1A0020FFFF000038
:10009000F0B503AF040B0F2214400023002C07D04F
:1000A000302337250A2C00D32B461B190B70012354
:1000B000040A1440002C07D0302537260A2C00D320
:1000C00035462C19CC545B1C04091440002C07D075
:1000D000302537260A2C00D335462C19CC545B1C0E
:1000E0001040302237240A2800D322461018C85462
:1000F000581CF0BDF0B503AF85B003910646002A49
:100100001CD0501E029000250192039CA800049070
:1001100020583146FFF7BCFF3618049820580028B5
:1001200002DA27203070761C019A0298854202D2AA
:100130002F203070761C6D1CAA42E7D10020307051
:1001400005B0F0BD80B500AF0221014303488142F4
:1001500002D1002001F090F9002080BD0300008052
:10016000F0B503AF81B0114A1368C45C0021002CC4
:1001700019D000935D1C461900200D4904E00C5471
:100180002B181360345C401CE3B2002B08D00A2B00
:1001900002D03028F3D903E0009B1B185B1C1360CE
:1001A00000220A540121084601B0F0BD3418002095
:1001B0000018002080B500AF0A49884205D00A49DE
:1001C00088420DD100F014F80AE008486921017056
:1001D000852141702020022100F0E2FF00F05AF852
:1001E000002080BD01000080020000806C1A002009
:1001F000B0B502AFA6B0234DAC78E978281D01AAAE
:100200000BAB00F0E9F80220044205D11D480021A3
:10021000412200F053FC05E00BA9083119484122A6
:1002200000F056FCE00706D128464130002120228C
:1002300000F044FC06E02846413001A908312022A4
:1002400000F046FC600706D42846613000212022D9
:1002500000F034FC06E0284661300BA94C31202226
:1002600000F036FC812090212954822000242C5457
:100270002020832100F094FF00F00CF8204626B0E7
:10028000B0BDC0466C1A002080B500AF00F00AFF78
:1002900080BD0000B0B502AF214800250570214C9B
:1002A000224878442060032060602149794421611C
:1002B000E5602076E5612046183001F0FBF8E0614A
:1002C00000F0A6FDA5602068002828D0E069164946
:1002D000884216D123E06068854220D201F026F9D9
:1002E00000281CD1A068E1683825684322681018EE
:1002F000002909D08847002806D1A068451CA560C0
:1003000020680028E7D10AE0012803D1A06845430E
:100310002068401900F0C6FEA068401CA060B0BD77
:10032000381800203C180020445010B04E22000025
:1003300095FEFFFFB0B502AF224801210170224CAB
:10034000234878442060052060602248784420617A
:100350000025E56003202076E5612046183001F095
:10036000A9F8E06100F054FDA5602068002828D0BD
:10037000E0691649884216D123E06068854220D2A0
:1003800001F0D4F800281CD1A068E1683825684342
:1003900022681018002909D08847002806D1A068D3
:1003A000451CA56020680028E7D10AE0012803D198
:1003B000A06845432068401900F074FEA068401C06
:1003C000A060B0BD381800203C180020445010B088
:1003D0005622000065FEFFFFF0B503AF8BB01D464F
:1003E00002920A46014628464C306B461860212688
:1003F00003AC3046234601F01FF820223046214648
:10040000029C234600F0DCFF0123304629462246A9
:1004100000F0F4FF0BB0F0BDB0B502AF05460F2001
:1004200028400024012813D0022813D1002908D025
:100430000B4801F05DF868B2002809DA00F086FF89
:1004400006E0412081000648002201F08BF80446B6
:100450002046B0BD03480068022101F0F9FFC04604
:100460006C1A00201C1A0020F0B503AF93B06E4642
:10047000F51D2D3500226A612A61EA605248006844
:10048000B26047E0042800D086E0544804603C2075
:10049000534A1060DA78501EC0B2052800D38BE0B2
:1004A0000A20504301210143C81D4E4901406846BE
:1004B00070606846441AA546191D2046FFF71AFECB
:1004C0002046FFF74DFEFFF735FF1020E968014396
:1004D000E96070688546F01D0530818D28683A4ACC
:1004E0001060002915D06CE0394A11400D22D2026B
:1004F0000A43F11D35310A80A968090A2A69354B7A
:100500009954A9682A699A1851702969891C296126
:100510002060B268F11D35310A802860F41D053471
:10052000204601F089FF0146A18527480460044662
:100530002648014214D0F01D0530B2688285286833
:1005400020600F2212030A4009231B039A4203D0A2
:1005500003235B039A42C7D1F21D35321180CBE7EA
:100560002869686100242C61E8686969C0B289B2B1
:1005700000F016FE6861EC6017496869002817D022
:10058000144B187880280DD15878FF2800D079E7CF
:10059000FC1F053CA546F0BD0B4800686D21090213
:1005A00001F056FF084800683721490201F050FF6A
:1005B0000548006801F04CFF03480068FE3101F077
:1005C00047FF01F045FFC0461C1A0020FFFF000056
:1005D000FF0700006C1A0020826900003418002018
:1005E000EC180020F81F0000F0B503AF85B0D64E20
:1005F0003078401F092800D99CE140007844808869
:1006000040008744090097019701970197019701DE
:1006100097012D005C008600CC4E0120307600252D
:10062000F56134461834204600F044FF0146F1617C
:10063000C848814200D0B4E003203076F5612046FE
:1006400000F038FFF06100F0E3FBB560306800288F
:1006500000D16FE1F069BE49884200D09EE069E1B7
:10066000BA4D0120287600200490E8612C46183409
:10067000204600F01FFFE861B549884200D159E1EA
:10068000002800D156E1B349884200D0D9E00320C8
:10069000AE490D462876049EEE61204600F00AFF22
:1006A000E86100F0B5FBAE602868002800D141E1A8
:1006B000A648C069A649884200D0A4E03AE1A34D0B
:1006C000012028760026EE612C461834204600F0E2
:1006D000F1FEE8619E49884200D12BE1002800D15B
:1006E00028E19C49884200D0C2E003202876EE61D0
:1006F000204600F0DFFEE86100F08AFBAE6028686B
:10070000002800D116E1E8699149884200D095E0BF
:1007100010E100F07DFB8D4C0020A06021680029D5
:1007200000D107E1E1698A4A91421AD102E1616888
:10073000884200D3FEE000F0F9FE002800D0F9E086
:10074000A068E1683825684322681018002900D1A4
:10075000ABE08847002800D0A7E0A068401CA0605C
:1007600021680029E3D1E5E07068854200D3E1E02B
:1007700000F0DCFE002800D0DCE0B068F16838242E
:10078000604332681018002900D1ACE08847002887
:1007900000D0A8E0B068451CB56030680028E3D1FF
:1007A000C8E030690028684B00D1C3E0684A914234
:1007B00000D1BFE0002900D1BCE0D978490800F0A1
:1007C000B3FCB7E0614840680499814200D3B1E0CE
:1007D00000F0ACFE002800D0ACE05C480246906817
:1007E000D1683824604312681018002900D186E0CF
:1007F0008847002800D082E0544801468868401CA1
:100800000490886008680028DCD193E0686886421C
:1008100000D38FE000F08AFE002800D08AE0A868AC
:10082000E968382460432A681018002977D088477F
:10083000002874D1A868461CAE6028680028E5D15D
:1008400078E042488188049101680391F479B37992
:1008500075793279F678C16868460660416012029F
:100860002A431B0223430398049900F04BFB61E0E9
:100870002868002830D0A868696888422CD200F027
:1008800055FE002828D1A868E968382460432A6802
:100890001018002915D08847002812D1A868401CDC
:1008A000A86029680029E7D116E0012803D1A068D3
:1008B00045432068401900F0F5FBA068401CA0608B
:1008C00038E0012803D1A86844432868001900F0E3
:1008D000E9FBA868401CA8606868A968814229D320
:1008E00000F024FE26E0012803D1B06844433068BC
:1008F000001900F0D7FBB068401CB0601AE0012876
:1009000005D112480146886844430868001900F080
:10091000C9FB0E4801468868401C88600AE001282F
:1009200003D1A86844432868001900F0BBFBA868FD
:10093000401CA86000F0FAFD002801D100F062F927
:10094000012005B0F0BDC046F01800203C18002082
:10095000445010B0555010B001480021016070475C
:100960001C1A0020F0B503AF83B002920C46019030
:100970004A4DAC420FD0494E40253046294601F041
:1009800007FD02984028024600D32A4630462146F9
:1009900000F09EF8414DA878052800D976E0C046C1
:1009A0007844007940008744020C1371711F0026BF
:1009B000AE716E712E71EE7040212846019A9047FB
:1009C0000BE0E81C042100F0DDFC4021284601E09A
:1009D00032484021019A90470026314800210160A9
:1009E0003046C0B203B0F0BDE8782D4C2168090A4A
:1009F00000268842F1D128792168C9B28842ECD119
:100A0000284B0298C018051F206800280ED02946E0
:100A100019402548026891421E4600D905682A46B9
:100A20003240224800681D49491D21E001931B49BD
:100A300088794979090201431D4801600168412212
:100A400092009142C9D80168174801601749194AB4
:100A50000A601949029A55182946019E31400268D8
:100A6000914200D905682A4632400C48C11D114800
:100A700000F02EF835400D480168491901600A4818
:100A80000168491B01602068401C2060064801681D
:100A9000012002260029A4D19FE7C046201A002089
:100AA000601A0020FFFF0000681A0020701B002061
:100AB000641A00206C1A0020F9FF010080B500AF15
:100AC0000B46002A03D011461A4601F067FC80BD90
:100AD000B0B502AF88420DD9002A14D0491E524247
:100AE000401E0023DB431C4654430D5D0555521C3C
:100AF000F9D108E0002A06D000239CB20D5D05550F
:100B00005B1C521EF9D1B0BD014800210160704745
:100B1000601A0020F0B503AF87B0019303920E4630
:100B20000490002E42D0314D0020286030493148D9
:100B30000860314C601D3B210590029101F028FCBA
:100B40000520A0702868000AE07028682071B1B202
:100B500028680028069109D03B290A4600D3029A4A
:100B600023480346196805981E460AE0300A60715A
:100B7000A671392039290A4600D302461C4E316835
:100B8000E01D0592FFF7A4FF184D30683146059E21
:100B9000801908602868401C286040212046049A7B
:100BA00090470698861B15480642C3D10F4800247B
:100BB000046080200199014201D000F0C7FB019838
:100BC00080060FD40C4C40212046039A9047C2B2B5
:100BD000402AF8D804982146FFF7C4FE0228F2D133
:100BE00007480468A0B207B0F0BDC046601A0020F4
:100BF000701B00206C1A0020201A0020FFFF00004C
:100C0000641A002080B500AF00F090FC00280BD1E2
:100C10000648602101700021417002228270C1707B
:100C20000171052100F064FC80BDC046F018002071
:100C3000D0B502AF1548C078401E072824D8C0465A
:100C4000784400794000874403181F141F1F1F1C9D
:100C50000F4C0121204600F024FF204600F00AFF3F
:100C60000C48007801280FD10B480068102101F0D2
:100C7000EFFB074800F018FFD0BD054800F018FF53
:100C8000D0BD034800F012FFD0BDC046F0180020D0
:100C9000981B0020741B00201C1A00207F2101409B
:100CA0000148405C7047C046751B002080B500AF0E
:100CB0000F480179042908D0022911D001290ED149
:100CC000811D0D4800F005FE80BDC2787F211140D6
:100CD0004279084B5A54821D074800F029FE80BD16
:100CE000C2787F211140821D034800F062FE80BD62
:100CF000F0180020751B0020981B0020F0B503AFF2
:100D000083B005460292FF2A48D8254E5020307005
:100D1000029CE01C0091010A7170B07080200543B4
:100D2000F57020203071747106213046019300F077
:100D3000DFFB0098214600F0DBFB019800282DD056
:100D4000C44300F0F3FB002801D1FFF75BFF4B2009
:100D500081000022304600F005FC06280CD13078D6
:100D6000102809D1F078A84206D13079022803D1A1
:100D700070790299884211D0FFF75AFF3078152810
:100D800002D1B079000704D50220FFF72DFC641CC6
:100D9000D7D104480068102101F05AFB03B0F0BD20
:100DA000F01800201C1A002080B500AF0A4601464A
:100DB00082201423FFF7A2FF80BD0000D0B502AF50
:100DC000072000F0A5FA0A480024047009480480AE
:100DD000094804800948048009480470FFF794FE1C
:100DE000084804600848046008480460D0BDC04654
:100DF0007B1B00207C1B00207E1B0020801B002012
:100E0000741B0020841B0020881B00208C1B0020EA
:100E10000148002101607047841B0020B0B502AF7B
:100E20000D460446206B00280CD000F059FA01460C
:100E30002046884700F054FA0021002810D00128ED
:100E400000D00446002D07D02046A84700210028E6
:100E500006D0012800D004462046FFF715FA0121EC
:100E60000846B0BDB0B502AF8EB00C460546686B03
:100E700000280CD000F034FA01462846884700F0DC
:100E80002FFA0021002816D0012800D00546684618
:100E900038222946FFF71CFE686A0490A86A05906C
:100EA000002C04D02846A0470021002803D0684623
:100EB000FFF7EAF9012108460EB0B0BDB0B502AFA8
:100EC0000D460446E06A00280CD000F009FA0146FD
:100ED0002046884700F004FA0021002810D001289D
:100EE00000D00446002D07D02046A8470021002846
:100EF00006D0012800D004462046FFF7C5F901219D
:100F00000846B0BDF0B503AF87B0029303920591D8
:100F1000002976D004900D9801900C98009000263E
:100F20000696344600F002FB002855D13820704365
:100F3000049D2E18364B1A680121964200D006995E
:100F400006912856002841DA2020355C0221715E86
:100F50004A1B0398824239DC6918F2888918039881
:100F6000884233DA0421705E421B02998A422DDCEA
:100F70004019318940180299814227DA186886425F
:100F800010D0186800280DD00198002805D03046F0
:100F9000019988471E4B002818D018680199FFF75F
:100FA0003DFF08E00098012809D002280ED1304604
:100FB0000199FFF783FF164B002807D023E0304646
:100FC0000199FFF74FFF124B00281FD1641CE6B2B6
:100FD00005988642A6D300E00D4B0698000610D077
:100FE000186800280DD000F0A1FA0949002808D19E
:100FF00008680199FFF712FF054D002801D0002075
:10100000286007B0F0BD00201860FAE71E60F8E71E
:10101000841B0020F0B503AF8BB00C46014604AD35
:101020001C2228460392FFF753FD2168E98062687D
:1010300002952A81A0681A4E65233546337092B214
:1010400042438BB25343D9084E1C0722134200D1AE
:101050000E46314601910426864070181D30010A63
:101060006970A8700321284600F042FA029803999B
:1010700000F03EFAA06828700121284600F038FAF6
:10108000E06800F02DF9B1B200F032FA019885B2B3
:10109000206900F025F9294600F02AFA0BB0F0BDCE
:1010A000F0180020F0B503AF81B0044620787F2609
:1010B0000640002E2ED0E06900281DD000F010F967
:1010C0000546052E02D1A07E002825D0284601F035
:1010D000CDF9064613486521017031461C310A0AD4
:1010E00042708170032100F003FA1C21204600F0B9
:1010F000FFF9B1B228460BE00A48652101700021D2
:1011000041701C258570032100F0F2F92046294624
:1011100000F0EEF901B0F0BD20462946FFF77AFF56
:10112000F8E7C046F0180020F0B503AF81B00446E0
:10113000002C2ED0184802688A4203D1174A13683F
:101140005B1C136006680E43144A1568002901D021
:10115000066005E00023036013600123DB071E43E4
:101160000068884201D000201060082D0ED30321B2
:10117000284601F007F90120800730430029014685
:1011800000D03146002902DB084600E030462946FF
:10119000A04701B0F0BDC046881B00208C1B00207A
:1011A000F0B503AF81B004460F20044206D02046BC
:1011B000FFF732F90546A8B201B0F0BD102626406F
:1011C00000292AD0002E28D13C48007807280BD0CF
:1011D000002804D02046FFF71FF900280AD038481D
:1011E0000068092101F034F93C48784400222023AA
:1011F000FFF790FC002531480570324805803248E1
:1012000005803248058032480570A006D3D4FFF728
:10121000F9FC200601D500F099F8002E0CD16006EB
:1012200047D42648002101702648018026480180C5
:10123000264801802648017000F078F9002801D185
:10124000FFF7E0FC244C204E0EE0FFF72FFD308826
:10125000002807D02BE00220FFF7C6F900F066F95E
:10126000002801D1FFF7CEFC4B208100002520464D
:101270002A4600F077F9C11EA27863781B02134357
:10128000994209D1217810290ED00F29E3D10428E1
:1012900002D1FFF7CDFCE5E7084805700948058055
:1012A00035800A480580DDE70628CED283E73588F9
:1012B00081E705480088074945187CE77B1B00202B
:1012C0001C1A00207C1B00207E1B0020801B00209D
:1012D000741B0020FBFF0000F0180020BBFBFFFF89
:1012E00080B500AF0449884204D30449884201D242
:1012F00000F006F880BDC0460000D0C0C027D0C0B6
:101300007A460249C91C891A401A70470113D0C095
:1013100080B500AF84B00A4901910A490A68029277
:10132000039001A8004601DF00460748019A824267
:1013300001D104B080BD0868042101F089F8C046DD
:10134000370100601C1A0020C601009080B500AF74
:1013500082B0094800900948016801916946084631
:1013600001DF01460649009A8A4201D102B080BDE0
:101370000068042101F06CF8000200601C1A0020D3
:10138000F102009080B500AF84B00A4A00920A4A88
:1013900013680193029003916846004601DF0046FE
:1013A0000649009B8B4201D104B080BD1068042126
:1013B00001F04EF82C0500601C1A00206705009013
:1013C000B0B502AF86B00A4C00940A4C256801956E
:1013D00002AD0FC56846004601DF00460649009A87
:1013E0008A4201D106B0B0BD2068042101F030F876
:1013F000ED2900601C1A0020AE290090B0B502AFA4
:1014000086B00A4C00940A4C2568019502AD0FC5C0
:101410006846004601DF00460649009A8A4201D12B
:1014200006B0B0BD2068042101F012F82E2A006039
:101430001C1A0020742A0090B0B502AF88B00B4C83
:1014400001940B4C2568029503AD0FC50C980790CD
:1014500001A8004601DF004606480199814201D1FA
:1014600008B0B0BD2068042100F0F2FF2B510060ED
:101470001C1A00207F51009080B500AF84B00A494B
:1014800001910A490A680292039001A8004601DF0F
:1014900000460748019A824201D104B080BD086825
:1014A000042100F0D5FFC046E15F00601C1A002057
:1014B0006F5F009080B500AF84B00A4901910A497E
:1014C0000A680292039001A8004601DF0046074A1D
:1014D000019B934201D104B080BD0868042100F053
:1014E000B7FFC046586100601C1A00201F610090C1
:1014F00080B500AF84B00A4A00920A4A136801938B
:10150000029003916846004601DF004606480099B4
:10151000814201D104B080BD1068042100F098FF21
:101520001C6A00601C1A0020F36A009080B500AFAE
:1015300082B0094800900949086801906846004651
:1015400001DF0046064A009B934201D102B080BDF4
:101550000868042100F07CFFCF6B00601C1A00209B
:101560007F6B0090D0B502AF86B00B4B01930B4B55
:101570001C68029403AC07C401A8004601DF0046C2
:101580000749019A8A4202D180B206B0D0BD1868DC
:10159000042100F05DFFC046D16C00601C1A0020E1
:1015A0002B6C0090024900200860024908607047D7
:1015B000901B0020941B0020D0B502AF06484F219D
:1015C000017000244470012181700221C170042146
:1015D000FFF78EFF2046D0BDF0180020F0B503AF16
:1015E00083B001AD4F262E7000246C700220A870CD
:1015F0000320E8702C7105212846FFF779FF2E7033
:101600006C700120A870E87004212846FFF770FF75
:10161000204603B0F0BDD0B502AF82B001A84F2183
:10162000017000244470012181700221C1700421E5
:10163000FFF75EFF204602B0D0BD0000B0B502AF9C
:1016400082B00F48002404600E48046068464F25AD
:1016500005704470052585700425C5700125057148
:101660004171032A02D8D000074CC44068468471F7
:10167000C3710821FFF73CFF002002B0B0BDC04697
:10168000901B0020941B002001040302D0B502AF80
:1016900082B068464F220270002444700522827096
:1016A0000422C2700122027141718471C471082147
:1016B000FFF71EFF204602B0D0BD0000B0B502AF5C
:1016C00082B00D4668465021017000244470032109
:1016D0008170C5704021017144710621FFF708FF38
:1016E0008020054201D1074800E0054801687F22BB
:1016F00015400122AA400A430260204602B0B0BD54
:10170000901B0020941B0020F0B503AF83B00D4662
:1017100001A8502101700024447003218170C5701C
:101720008026067144710621FFF7E2FE354201D1A1
:10173000074800E0054801687F2215400122AA40C1
:1017400091430160204603B0F0BDC046901B0020CD
:10175000941B00208020014201D0064800E004488C
:1017600000687F22114001228A400240D0B27047B7
:10177000941B0020901B0020D0B502AF82B06846B9
:101780004F22027000244470022282700322C27031
:1017900001710521FFF7ACFE204602B0D0BDB0B507
:1017A00002AF82B01C461546684650220270E21C09
:1017B000130A43708270C1702021017144710621A7
:1017C000FFF796FE28462146FFF792FE002002B062
:1017D000B0BDD0B502AF82B068465023037000247C
:1017E000447003238370C17030210171427106215E
:1017F000FFF77EFE204602B0D0BDF0B503AF81B04A
:1018000015460E4604460220002C10D041208100CF
:10181000204600F0BDFD002E01D0F0202650DC2037
:101820000121215425702046FFF7BCFE0020C0B2E4
:1018300001B0F0BDD0B502AF0446DC200121215437
:10184000F4202058002806D04068FFF749FD0246E2
:101850002179204690472046FFF7DDFE2046FFF71E
:10186000ABFE0020D0BD0222002902D0F42281501C
:101870000022D0B2704780B500AFFFF7AFFE002066
:1018800080BDB0B502AF0C460546F42028580028AC
:101890000CD00068FFF724FD0246284621469047F9
:1018A00001460220002900D10846B0BD0220B0BD8B
:1018B000B0B502AF0C460546F4202858002806D0E3
:1018C0004068FFF70DFD024628462146904700205C
:1018D000B0BDB0B502AF04462546E835284600F055
:1018E0004CFBD42001212150EE20205AD8216050F9
:1018F000E820215C1F200840022808D001280BD0D6
:1019000000280ED12046294600F0E6F80EE02046D9
:10191000294600F0B8FA09E02046294600F08CFA82
:1019200004E0802001402046FFF7C8FE0020B0BD43
:10193000F0B503AF81B015460E460446002E10D018
:10194000F42020588069002830D0DC21615C032914
:101950002CD1FFF7C5FC0346204631462A4698475E
:1019600024E0D4202058032820D180202058E16F83
:1019700081420AD9091AE167814200D301468AB23D
:101980002046294600F056FC10E0F420205800695B
:10199000002808D0DC21615C032904D1FFF7A0FCFA
:1019A000014620468847204600F04CFC002001B04C
:1019B000F0BDF0B503AF81B00D460446002D11D047
:1019C000F4202058002852D0406900284FD0DC2154
:1019D000615C03294BD1FFF783FC02462046294670
:1019E000904744E0D4202058022839D1E069256A84
:1019F000A8420BD9401BE06101210A02A1584919F4
:101A0000A15082B2204600F006FC29E0A6693046CB
:101A1000294600F0B7FCAE420FD300290DD1D820E3
:101A200020582546D835864207D200262046314622
:101A3000324600F0F0FB2E6012E0F420205800281F
:101A40000BD0C068002808D0DC21615C032904D1D8
:101A5000FFF746FC014620468847204600F0FFFB82
:101A6000E020205CE034012801D10020207000201B
:101A700001B0F0BDD0B502AF044680204021215016
:101A80002162DC2001212154F4202058002806D0B6
:101A90004068FFF725FC0246217920469047002048
:101AA000D0BD0174002070470020704700207047AF
:101AB000D0B502AF0446DC20205C032809D1F42015
:101AC0002058C069002804D0FFF70AFC01462046D0
:101AD00088470020D0BD0000D0B502AF044648784A
:101AE000092810D8784400794000874404080C1570
:101AF0000C19250C1D21204600F02EF91FE0204670
:101B000000F069F91BE080212046FFF7D7FD002196
:101B10002046FFF7D3FD12E0204600F045F90EE025
:101B2000204600F08DF80AE0204600F0F5F806E0C7
:101B3000204600F0B3F802E0204600F003F8002051
:101B4000D0BD0000B0B502AF82B00D460446688833
:101B5000010A4A1E80210E2A3AD8C0467A441279D8
:101B60005200974407240B35352B32353535353542
:101B700035351A00F0202058006811E0C0B2052861
:101B800026D8C04678440079400087440245494D34
:101B90005155F0202058406802E0F0202058C069DC
:101BA000FFF79EFB0246207C01A9904722E0F4202B
:101BB0002058217C002913D0C06A16E0207C002820
:101BC00006D1F4202058406B0FE0207C002809D07B
:101BD0002046FFF773FD00212046FFF76FFD19E057
:101BE000806A02E0F4202058006BFFF779FB014681
:101BF00001A88847014601A80288002A0AD0E8887F
:101C0000002807D0824200D3024601A80280204665
:101C100000F0EAFA02B0B0BDF02020588068BFE7BB
:101C2000F0202058C068BBE7F02020580069B7E7D3
:101C3000F02020584069B3E7F02020588069AFE7D2
:101C4000F0B503AF81B00A46044690888021002891
:101C50000BD1D088002808D150887F260640DC2090
:101C6000205C2546DC35032808D12046FFF726FDF9
:101C700000212046FFF722FD01B0F0BDDE202654F2
:101C8000F1B22046FFF778FD204600F0DBFA022093
:101C90000121002E00D108462870EDE7F0B503AF12
:101CA00081B004468E788025022E1DD2DC20215C76
:101CB0002046DC30032907D0022915D1002E26D07A
:101CC00066600321017009E0002E16D0606886422C
:101CD0001DD0C1B22046FFF7EBFD666020463146BD
:101CE000FFF7CFFD022812D120462946FFF7E6FC78
:101CF00000212046FFF7E2FC0CE002210170666043
:101D000020463146FFF7D4FD204600F09BFA2046DE
:101D100000F098FA01B0F0BDD0B502AF0446C88813
:101D2000802101280AD1DC20205C03280ED0022863
:101D300004D10020A0602146083108E02046FFF7CA
:101D4000BDFC00212046FFF7B9FCD0BD211D0122BA
:101D5000204600F049FAD0BDB0B502AF0446DC2001
:101D6000205CFE210140022915D10120E060E42021
:101D7000215825460C350320002905D0204600F0C7
:101D80006EFAE16802200843E060022220462946FC
:101D900000F02AFAB0BD80212046FFF78FFC002119
:101DA0002046FFF78BFCB0BDB0B502AF0D46044630
:101DB000688801280ED1E42001212150F420205808
:101DC0008068FFF78DFA0246204629469047204654
:101DD00000F038FAB0BDB0B502AF0D460446DC20C5
:101DE000205CFE210140022912D16888012817D108
:101DF000E42000212150F42020588068FFF770FA79
:101E00000246204629469047204600F01BFAB0BD06
:101E100080212046FFF752FC00212046FFF74EFCB0
:101E2000B0BDD0B502AF04468021FFF747FC0021CA
:101E30002046FFF743FCD0BDB0B502AF0D460446C7
:101E4000DC20205C8021032814D1A888FE220240D7
:101E5000012A0FD8F42020588068FFF741FA024683
:101E6000204629469047E88800280AD1204600F0FD
:101E7000E9F906E02046FFF721FC00212046FFF7A4
:101E80001DFC0020B0BDF0B503AF81B00E46044686
:101E9000307860210140202909D1F4202058806841
:101EA000FFF71EFA024620463146904762E0357938
:101EB00070788021002812D0012819D0032859D128
:101EC000DC20205C032817D1708800282DD12943FD
:101ED00080292AD020462946FFF7F0FB25E0DC20A8
:101EE000205C03282ED002280ED1680609D141E0DB
:101EF000DC20205C03280FD0022805D1294380294B
:101F000038D02046294604E02046FFF7D7FB0021C1
:101F10002046FFF7D3FB2DE0708800282AD1680601
:101F20000CD020462946FFF7EFFBF42020588068AC
:101F3000FFF7D6F90246204631469047204600F08A
:101F400081F917E026461436204674300D4200D140
:101F5000064620462946FFF7FDFB0121002800D157
:101F600001467F20054028013150311802222046C9
:101F700000F03AF9002001B0F0BD0A7802704A780A
:101F800042708A78CB781B02134343800A794B79DD
:101F90001B02134383808A79C97909021143C180E6
:101FA0007047F0B503AF83B00D46044602A8002683
:101FB000068001A80670297860200840002810D00B
:101FC000202839D1687801460A39022934D30228F9
:101FD0001CD003281AD020462946FFF722FF0226EC
:101FE0002AE068780B2814D00A280FD0062823D1BD
:101FF0006888000A002621280FD022283246314660
:1020000017D102A8009000F047F80AE001A90122C8
:102010000FE0204600F016F90EE002A8009000F054
:1020200033F8009B01461A88E888824200D30246B2
:102030001A80204600F0D8F8F0B203B0F0BDF0B539
:1020400003AF81B004468221022540262A4633464A
:10205000FFF7F4FA204629462A463346FFF7EEFA00
:10206000204629463246FFF7B4FB002001B0F0BD00
:10207000D0B502AF04468221FFF708FB02212046BB
:10208000FFF704FB0020D0BD0921018001487844FE
:102090007047C04652060000222101800148784462
:1020A0007047C04620060000B0B502AF14460225B6
:1020B00040222946FFF78DFB2846FEF7EFFD02463A
:1020C0000D4878442146FEF74DFC022809D1064808
:1020D0000121017005480721017005480068054984
:1020E00008800020B0BDC046741B00207B1B002070
:1020F000641A00207E1B0020E3ECFFFFF0B503AF65
:1021000081B0044641208500104800212A46FEF790
:10211000D5FC002C15D00D4C0026204631462A4611
:10212000FEF7CCFC0A49794420463246FFF765FBAE
:10213000084979442046FFF796FB2046FFF79BFBB2
:1021400002E00248FFF776FB01B0F0BD981B0020CB
:10215000D6050000060600001220088001487844D9
:102160007047C0468B050000042008800148784471
:102170007047C046AE0500000E2008800148784434
:102180007047C046A20500000E2008800148784430
:102190007047C046220500000A20088001487844A4
:1021A0007047C046900500000E2008800148784422
:1021B0007047C046020500000E20088001487844A0
:1021C0007047C046F204000029210180014878448C
:1021D0007047C046A20500000A21018001487844EA
:1021E0007047C046BE050000B0B502AF0C46D42112
:1021F000022343508261C261012109024450016AF5
:102200008A4200D30A4693B2002529462246FFF7A8
:10221000C6FA2846B0BDB0B502AF0C46016A8A4284
:1022200000D30A4693B2002529462246FFF7B7FAA3
:102230002846B0BDD0B502AF00242146FFF7C9FA49
:102240002046D0BDD0B502AFD42104224250002494
:10225000214622462346FFF7A2FA2046D0BDD0B53C
:1022600002AFD42105224250002421462246FFF726
:10227000B0FA2046D0BD0000002243088B4274D340
:1022800003098B425FD3030A8B4244D3030B8B4277
:1022900028D3030C8B420DD3FF22090212BA030C80
:1022A0008B4202D31212090265D0030B8B4219D361
:1022B00000E0090AC30B8B4201D3CB03C01A524181
:1022C000830B8B4201D38B03C01A5241430B8B42C9
:1022D00001D34B03C01A5241030B8B4201D30B03B2
:1022E000C01A5241C30A8B4201D3CB02C01A5241D9
:1022F000830A8B4201D38B02C01A5241430A8B429C
:1023000001D34B02C01A5241030A8B4201D30B0284
:10231000C01A5241CDD2C3098B4201D3CB01C01A9E
:10232000524183098B4201D38B01C01A52414309A8
:102330008B4201D34B01C01A524103098B4201D396
:102340000B01C01A5241C3088B4201D3CB00C01A03
:10235000524183088B4201D38B00C01A524143087B
:102360008B4201D34B00C01A5241411A00D20146A0
:10237000524110467047FFE701B5002000F006F813
:1023800002BDC0460029F7D076E770477047C046C7
:1023900010B5002200F002F810BDC046130010B5C1
:1023A0000A00190000F002F810BDC04670B583079E
:1023B0003FD0541E002A3BD0CEB20300032503E0D9
:1023C000621E002C34D0140001335A1E16702B42AA
:1023D000F6D1032C24D9FF250D402A0215432A04E7
:1023E00015430F2C11D92600103E3609013636014F
:1023F0001A009B19156055609560D56010329342A4
:10240000F8D10F221440032C0AD9261FB608013632
:10241000B6001A009B1920C29342FCD1032214403B
:10242000002C05D0C9B21C19197001339C42FBD194
:1024300070BD14000300CCE7F0C041464A46534645
:102440005C466D4676467EC02838F0C8002070474E
:1024500010307CC890469946A246AB46B54608C89F
:102460002838F0C8081C00D10120184710B5830790
:1024700027D00378002B26D00300032102E01A782E
:10248000002A1CD001330B42F9D119680F4A104CB5
:102490008A188A4322420FD1043319680B4A8A18DA
:1024A0008A43224208D104331968084A8A188A43A9
:1024B0002242F1D000E001331A78002AFBD1181A29
:1024C00010BD0300E1E70020FAE7C046FFFEFEFE74
:1024D0008080808057616974696E6720666F7220A2
:1024E00070617468005665726966792070617468FD
:1024F0000000000003000000000080002000000039
:102500000100000000000000FFFFFF0000000000CD
:1025100000000000000000000000000000000000BB
:1025200000000000000000000000000007020000A2
:102530000C0080000B00000000000000FFFFFF0007
:10254000000000000A800000D424D0C00000000079
:10255000000000000000000000000000000000007B
:1025600000000000050003000C0007000700000049
:1025700000000000FFFFFF00000000000000070057
:10258000000000000000000000000000000000004B
:102590000000000000000000000000000300000038
:1025A000000080002000000001000000000000008A
:1025B000FFFFFF000000000000000000000000001E
:1025C000000000000000000000000000000000000B
:1025D00000000000070200000C0080000B0000005B
:1025E00000000000FFFFFF00000000000880000066
:1025F000E524D0C000000000000000000000000042
:1026000000000000000000000000000007021700AA
:102610001A0052000B008A0000000000FFFFFF00BC
:10262000000000000A801A000018002000000000CE
:10263000000000000000000000000000000000009A
:1026400000000000050003000C0007000700000068
:1026500000000000FFFFFF00000000000000070076
:10266000000000000000000000000000000000006A
:1026700000000000000000000000000005007500E0
:102680000D0008000600000000000000FFFFFF0032
:102690000000000000000600000000000000000034
:1026A000000000000000000000000000000000002A
:1026B000000000000E034E0061006E006F0020005D
:1026C000530006A0FF0901A1010903150026FF0020
:1026D0007508954081080904150026FF00750895C6
:1026E000409108C0092111010001222200120100BD
:1026F0000200000040972C010000020102030100CB
:102700005921D0C06921D0C07921D0C08921D0C041
:102710009921D0C0A921D0C0B921D0C000000000AB
:10272000040309040E034C006500640067006500A3
:1027300072000A0330003000300031003F20D0C06A
:102740007120D0C0A31FD0C0000000000000000016
:1027500000000000A920D0C0000000000000000020
:1027600000000000C921D0C0C921D0C0C921D0C0FB
:10277000D921D0C009022900010102C03209040098
:1027800000020300000209211101000122220007BA
:10279000058203400001070502034000010000001C
:1027A0000A060002000000400100000000000000D6
:1027B0000000000000000000000000000000000019
:04000005C0D0000166
:00000001FF
